:100000000C9434000C9449000C9449000C94490061
:100010000C9449000C9449000C9449000C9449003C
:100020000C9449000C9449000C9449000C9449002C
:100030000C9449000C9449000C9449000C9449001C
:100040000C9449000C9449000C9449000C9449000C
:100050000C9449000C9449000C9449000C944900FC
:100060000C9449000C94490011241FBECFEFD8E036
:10007000DEBFCDBF11E0A0E0B1E0E4EAF2E002C0F3
:1000800005900D92A830B107D9F70E9415010C9484
:1000900050010C9400008130B1F0823031F18111B7
:1000A00035C081E090E09C0101C0220F6A95EAF71B
:1000B000622F84B1413019F4822B84B90895609580
:1000C000682364B9089581E090E09C0101C0220F8B
:1000D0006A95EAF7622F87B1413019F4822B87B90C
:1000E00008956095682367B9089581E090E09C01C8
:1000F00001C0220F6A95EAF7622F8AB1413019F4E4
:10010000822B8AB90895609568236AB90895813071
:10011000B1F0823031F1811135C081E090E09C0175
:1001200001C0220F6A95EAF7622F85B1413019F4B8
:10013000822B85B908956095682365B9089581E09B
:1001400090E09C0101C0220F6A95EAF7622F88B106
:10015000413019F4822B88B908956095682368B9F5
:10016000089581E090E09C0101C0220F6A95EAF7B2
:10017000622F8BB1413019F4822B8BB908956095B1
:1001800068236BB90895813069F08230A1F0811144
:100190001AC085B121E001C0220F6A95EAF78227D3
:1001A00085B9089588B121E001C0220F6A95EAF768
:1001B000822788B908958BB121E001C0220F6A958A
:1001C000EAF782278BB9089508959B01AC0184E07A
:1001D000220F331F441F551F8A95D1F760E074E248
:1001E00084EF90E00E942E01215031093093C50028
:1001F0002093C40088E18093C10086E08093C20010
:1002000008959091C00095FFFCCF8093C60008959B
:10021000CF93DF93EC018881811103C0DF91CF91EF
:10022000089521960E940101F6CF41E065E080E04B
:100230000E944B0060E875E280E090E00E94E500DB
:1002400080E091E00E9408012FEF83ED90E32150C0
:1002500080409040E1F700C00000F2CFA1E21A2EEA
:10026000AA1BBB1BFD010DC0AA1FBB1FEE1FFF1F5A
:10027000A217B307E407F50720F0A21BB30BE40BAA
:10028000F50B661F771F881F991F1A9469F76095F1
:100290007095809590959B01AC01BD01CF010895AB
:0402A000F894FFCF00
:0802A40053494444550A0000CF
:00000001FF
